:020000040800F2
:10000000B8060020350200083D0200083F02000843
:1000100041020008430200084502000800000000F9
:10002000000000000000000000000000470200087F
:1000300049020008000000004B0200087902000895
:100040004F0200084F0200084F0200084F0200084C
:100050004F0200084F0200084F0200084F0200083C
:100060004F0200084F0200084F0200084F0200082C
:100070004F0200084F0200084F0200084F0200081C
:100080004F0200084F0200084F0200080000000065
:100090000000000000000000000000004F02000807
:1000A0004F0200084F0200084F0200084F020008EC
:1000B0004F0200084F0200084F0200084F020008DC
:1000C0004F0200084F0200084F0200084F020008CC
:1000D0004F0200084F0200084F0200080000000015
:1000E0004F0200084F0200084F0200080000000005
:1000F0000000000000000000000000004F020008A7
:10010000000000004F0200084F0200084F020008E4
:1001100000000000000000000000000000000000DF
:100120004F0200084F0200084F0200084F0200086B
:100130004F02000800000000000000000000000066
:100140000000000000000000000000004F02000856
:100150004F0200084F0200084F0200084F0200083B
:100160004F0200084F0200080000000000000000DD
:10017000000000000000000000000000000000007F
:10018000000000004F020008000000000000000016
:100190004F02000800F002F800F03CF80AA090E8D6
:1001A000000C82448344AAF10107DA4501D100F032
:1001B00031F8AFF2090EBAE80F0013F0010F18BFC3
:1001C000FB1A43F0010318474816000068160000A8
:1001D000103A24BF78C878C1FAD8520724BF30C873
:1001E00030C144BF04680C60704700000023002445
:1001F00000250026103A28BF78C1FBD8520728BF37
:1002000030C148BF0B6070471FB501F0F0FA1FBD49
:1002100010B510BD00F085F91146FFF7F5FF01F0AC
:10022000D5FA00F0A3F903B4FFF7F2FF03BC00F026
:10023000ABF900000948804709480047FEE7FEE7A0
:10024000FEE7FEE7FEE7FEE7FEE7FEE7FEE7FEE786
:1002500004480549054A064B70470000C1140008D0
:1002600095010008B8000020B8060020B802002060
:10027000B80200200000000003B54A480168A1F15F
:100280000101016003BD03B54748016821F0030186
:1002900001604648016821F04071016044480168EE
:1002A00021F0FF0121F4FE4121F4860121F070418B
:1002B00041F0080141F4A84141F4820101603A484B
:1002C000016821F0F30121F47C4141F0020141F485
:1002D0008051016037484FF00501016033480168E3
:1002E00041F4803141F08071016003BD03B53248B3
:1002F000016841F0010101603048016821F001010D
:1003000001602F48016821F4406141F4806101607F
:100310002C48016821F0060101602B48016821F496
:10032000406141F4006101602848016821F44061A6
:1003300041F40061016003BD03B52548016841F047
:100340002001016003BD03B52148016821F02001AF
:10035000016003BD03B51F48016821F0040141F0AD
:10036000020101601C4842F60411016003BD07B59B
:100370000C49086019494FF000020A6015490A68E3
:1003800042F001020A60074908680028FCD11349BD
:100390004FF000020A600F490A6822F001020A6069
:1003A00007BD00BF000000200838024000380240AE
:1003B00004380240003C02403038024050380240CD
:1003C0000000024004000240080002400C0002400D
:1003D0001400024010E000E014E000E018E000E04B
:1003E00053EA020C00F069802DE9F04B4FF0000653
:1003F000002B1FBFB3FA83F503FA05F424FA05F6C0
:100400005E4012BF1643B2FA82F502FA05F4C5F156
:1004100020051EBF22FA05FC44EA0C04203556EAEA
:10042000044C4FEA144418BF641C4FF000084FF00E
:100430000009904271EB030C39D3002919BFB1FABE
:1004400081F701FA07F6B0FA80F700FA07F6C7F16C
:1004500020071EBF20FA07FC46EA0C062037B6FB31
:10046000F4FCA7EB0507103F07F01F0BCBF12006AC
:100470000CFA0BFB2CFA06F644BFB3460026202FDD
:10048000A4BF5E464FF0000B5BEA060C08BF4FF0BE
:10049000010B19EB0B09ABFB027C48EB0608C01BF8
:1004A00006FB02CC0BFB03CC71EB0C01C1E70B4646
:1004B000024641464846BDE8F08B13B54FF00000B8
:1004C0004FF00001AFF30080BDE81C4070474FF0D3
:1004D000000200B5134694469646203922BFA0E894
:1004E0000C50A0E80C50B1F12001BFF4F7AF0907A0
:1004F00028BFA0E80C5048BF0CC05DF804EB890091
:1005000028BF40F8042B08BF704748BF20F8022BD3
:1005100011F0804F18BF00F8012B704770477047EB
:100520007047754600F02CF8AE4605006946534604
:1005300020F00700854618B020B5FFF789FEBDE81A
:1005400020404FF000064FF000074FF000084FF03A
:10055000000B21F00701AC46ACE8C009ACE8C009CB
:10056000ACE8C009ACE8C0098D46704710B5044638
:10057000AFF300802046BDE81040FFF754BE0000F6
:10058000004870475800002001491820ABBEFEE724
:100590002600020070470000F0B50C46002500223E
:1005A0000023002183E0012606FA01F504EA050292
:1005B000AA427BD1404E8F0856F827308E07370F5E
:1005C0000F26BE4033403D4EB04201D1002614E01C
:1005D0003B4EB04201D101260FE03A4EB04201D16C
:1005E00002260AE0384EB04201D1032605E0374E1C
:1005F000B04201D1042600E007268F073F0FBE401E
:100600009E4224D1324E36689643314F3E603E1DA5
:10061000366896433F1D3E602D4E0C363668964335
:100620002B4F0C373E603E1F366896433F1F3E609F
:100630008E07370F0F2606FA07F31F4E8F0856F85E
:1006400027609E431C4F4FEA910C47F82C600668C8
:100650004FEA410C032707FA0CF7BE430660CF08A8
:1006600000F1200656F827604F074FEAD76C0F2796
:1006700007FA0CF7BE434FEAD10C00F1200747F808
:100680002C60C6684FEA410C032707FA0CF7BE43FB
:10069000C660466801278F40BE43466086684FEAC1
:1006A000410C032707FA0CF7BE438660491C10294A
:1006B000FFF479AFF0BD00000838014000000240AF
:1006C0000004024000080240000C024000100240FA
:1006D000003C0140F8B502460B46002500240020EE
:1006E0000021C7E0012606FA01F51E6806EA0504A6
:1006F000AC4274D11E7906F00306012E04D01E7997
:1007000006F00306022E13D190684F000326BE4068
:10071000B0434F00DE68BE40304390605068012611
:100720008E40B0431E79C6F300168E4030435060B1
:100730001E7906F00306032E09D0D0684F00032669
:10074000BE40B0434F009E68BE403043D0601E792B
:1007500006F00306022E13D1CF0802F1200656F848
:1007600027004E07F70E0F26BE40B0434F07FF0E7F
:100770001E69BE403043CF0802F1200646F827002C
:1007800010684F000326BE40B0431E7906F00306F2
:100790004F00BE40304310605E6806F44036002EC5
:1007A00067D000BF00260096344E366846F4804677
:1007B000324F3E603E46366806F48046009600BFE3
:1007C00000BF2F4E8F0856F827008E07370F0F26D1
:1007D000BE40B0432B4EB24202D1002615E048E0A5
:1007E000294EB24201D101260FE0284EB24201D17A
:1007F00002260AE0264EB24201D1032605E0254E2C
:10080000B24201D1042600E007268F073F0FBE4009
:1008100030431B4E8F0846F827001F4E3068A04318
:100820005E6806F4801606B120431B4E3060361D0C
:100830003068A0435E6806F4001606B12043164EE9
:10084000361D3060144E361F3068A0435E6806F4D3
:10085000003606B12043104E361F3060361F306818
:10086000A0435E6806F4803606B120430A4E083E77
:100870003060491C1029FFF435AFF8BD4438024000
:100880000838014000000240000402400008024015
:10089000000C024000100240083C01400AB1816196
:1008A00001E00B0483617047014800687047000055
:1008B0000400002010B50D48006840F400700B499A
:1008C00008600846006840F48060086008460068D8
:1008D00040F480700860032000F070F80F2000F0F2
:1008E00007F800F02BF8002010BD0000003C02408B
:1008F00070B504460E4800784FF47A71B1FBF0F001
:100900000C490968B1FBF0F5284600F0F9FB08B185
:10091000012070BD102C07D200222146501E00F08D
:100920000EF80548046001E00120F2E70020F0E73E
:100930000C000020100000200800002070472DE966
:10094000F05F80460D461646002700F023FF07465D
:1009500039462A46334601F00700C0F1070ABAF1CA
:10096000040F02D94FF0040A01E0C0F1070AD14692
:1009700000F1040ABAF1070F02D24FF0000A01E0B9
:10098000A0F1030AD4464FF0010A0AFA09FAAAF1C3
:10099000010A0AEA020A0AFA0CFA4FF0010B0BFAF2
:1009A0000CFBABF1010B0BEA030B4AEA0B042146EB
:1009B000404600F0F7FEBDE8F09F000000BF00F0E9
:1009C0000702064B19684FF6FF031940044B0B430F
:1009D00043EA0221014B196000BF70470CED00E0B3
:1009E0000000FA0570B504460D460CB9012070BD33
:1009F0005848006800F00700A84209D255490D7018
:100A00000846006800F00700A84201D00120EEE788
:100A1000207800F0020002281DD1207800F00400A8
:100A2000042805D14C48006840F4E0504A49086069
:100A3000207800F00800082805D14748006840F4F5
:100A40006040454908604448006820F0F000A16813
:100A5000084341490860207800F00100A8B36068AD
:100A6000012807D13C4808380068C0F34040B8B9B5
:100A70000120BCE76068022802D06068032807D123
:100A8000354808380068C0F3406048B90120AEE737
:100A9000314808380068C0F3400008B90120A6E7D3
:100AA0002D48006820F00300616808432A49086067
:100AB000FFF7FAFE064609E0FFF7F6FE801B41F25B
:100AC0008831884202D9032091E707E02248006874
:100AD00000F00C006168B0EB810FEDD11D4800689B
:100AE00000F00700A84209D91A490D7008460068AD
:100AF00000F00700A84201D0012078E7207800F03C
:100B00000400042807D11448006820F4E050E1688C
:100B1000084311490860207800F00800082808D12F
:100B20000D48006820F46040216940EAC1000A498C
:100B3000086000F03FF808490968C1F30311074A4B
:100B4000515CC8400649086006480068FFF7D0FEBF
:100B500000204CE7003C024008380240F81700082B
:100B600010000020080000200148006870470000C5
:100B70001000002000B5FFF7F7FF04490968C1F332
:100B80008221034A515CC84000BD00000838024081
:100B90000818000800B5FFF7E7FF04490968C1F32A
:100BA0004231034A515CC84000BD00000838024091
:100BB000081800082DE9F047002400250026A1466A
:100BC0002548006800F00C0020B1042805D0082852
:100BD0003AD105E0DFF8849039E0DFF8849036E020
:100BE0001D48001F006800F03F041B48001F0068FC
:100BF00000F4800078B11A481749091F0968C1F349
:100C00008811A0FB01700146224600233846FFF7F9
:100C1000E7FB05460EE011480F49091F0968C1F3BB
:100C20008811A0FB01700146224600233846FFF7D9
:100C3000D7FB05460848001F0068C0F30140401C70
:100C40004600B5FBF6F902E0DFF8109000BF00BFE8
:100C50004846BDE8F0870000083802400024F40050
:100C600000127A00F8B504460CB90120F8BD2078CE
:100C700000F00100002874D0F948006800F00C0072
:100C800004280DD0F648006800F00C00082813D1A5
:100C9000F348001F006800F48000B0F5800F0BD10E
:100CA000EF4808380068C0F34040002859D0606819
:100CB000002856D10120D9E700BF6068B0F5803F19
:100CC00008D1E7480838006840F48030E449083922
:100CD00008601EE06068B0F5A02F0DD1E04808382C
:100CE000006840F48020DE49083908600846006842
:100CF00040F4803008600CE0D9480838006820F4DF
:100D00008030D749083908600846006820F4802000
:100D1000086000BF606890B1FFF7C6FD054606E0B9
:100D2000FFF7C2FD401B642801D903209EE7CC4891
:100D300008380068C0F340400028F1D011E0FFF708
:100D4000B3FD054606E0FFF7AFFD401B642801D95F
:100D500003208BE7C24808380068C0F340400028F1
:100D6000F1D1207800F0020002285FD1BC48006871
:100D700000F00C0058B1BA48006800F00C000828D8
:100D80001CD1B748001F006800F48000B0B9B44817
:100D900008380068C0F3400020B1E068012801D0A5
:100DA000012063E7AE480838006820F0F8002169A8
:100DB00040EAC100AA490839086037E0E06800B39A
:100DC0000120A8490860FFF76FFD054606E0FFF720
:100DD0006BFD401B022801D9032047E7A0480838D3
:100DE0000068C0F340000028F1D09D480838006832
:100DF00020F0F800216940EAC100994908390860EB
:100E000014E0002097490860FFF74EFD054606E014
:100E1000FFF74AFD401B022801D9032026E790482E
:100E200008380068C0F340000028F1D1207800F0B5
:100E3000080008282CD16069A8B101208A490860FF
:100E4000FFF732FD054606E0FFF72EFD401B0228A6
:100E500001D903200AE782486C300068C0F34000E3
:100E60000028F1D014E000207F490860FFF71CFD46
:100E7000054606E0FFF718FD401B022801D90320B4
:100E8000F4E677486C300068C0F340000028F1D1E8
:100E9000207800F00400042870D100277048383012
:100EA000006800F0805090B900BF002000906C48AE
:100EB0003830006840F08050694938310860084691
:100EC000006800F08050009000BF00BF0127674815
:100ED000006800F48070B0B96448006840F4807025
:100EE00062490860FFF7E0FC054606E0FFF7DCFC1E
:100EF000401B022801D90320B8E65C48006800F4D2
:100F000080700028F2D000BFA068012808D15448A2
:100F10006830006840F001005149683108601DE008
:100F2000A06805280DD14E486830006840F00400E4
:100F30004B49683108600846006840F001000860CD
:100F40000CE047486830006820F0010044496831EF
:100F500008600846006820F00400086000BFA06830
:100F6000A8B1FFF7A1FC054609E0FFF79DFC401B77
:100F700041F28831884202D9032077E626E03848DA
:100F800068300068C0F340000028EED013E0FFF79F
:100F90008BFC054608E0FFF787FC401B41F28831D7
:100FA000884201D9032061E62D4868300068C0F30B
:100FB00040000028EFD1012F07D1294838300068C0
:100FC00020F0805026493831086000BFA069002811
:100FD00045D02348006800F00C0008285DD0A069C7
:100FE000022845D100201F490866FFF75DFC054631
:100FF00006E0FFF759FC401B022801D9032035E623
:10100000174808380068C0F340600028F1D1D4E9DF
:1010100007010843616A40EA81110122A06AC2EB1C
:10102000500041EA00412C20005D41EA00600C497B
:10103000091F086001200B490866FFF735FC0546CB
:1010400006E0FFF731FC401B022801D903200DE622
:10105000034808380068C0F340600028F1D049E038
:101060000838024000004742800E474200700040AE
:10107000002021490866FFF717FC054606E0FFF748
:1010800013FC401B022801D90320EFE51B48006830
:10109000C0F340600028F2D12CE0A069012800D103
:1010A000E4E51648001D0668A069012820D006F472
:1010B0008001E06981421BD106F03F01206A814234
:1010C00016D147F6C0703040616AB0EB811F0FD176
:1010D00006F440310122A06AC2EB5000B1EB004F90
:1010E00006D106F070612C20005DB1EB006F01D0DD
:1010F0000120BBE50020B9E500004742003802406E
:1011000070B504462546681EB0F1807F01D30120EA
:101110000FE0681E4FF0E02148610F214FF0FF30D3
:1011200000F040FB00204FF0E021886107200861BB
:10113000002070BD10B504460CB9012010BDA06997
:1011400000B100E000BF94F83D0028B9002084F809
:101150003C00204600F028F8242084F83D00206858
:10116000C06820F400502168C860204600F0B2F941
:101170002068006920F49040216808612068406977
:1011800020F02A00216848612068C06840F40050BF
:101190002168C86000202064202084F83D0084F885
:1011A0003E000020CAE7000010B586B004464FF4A8
:1011B00000711D48FFF7F0F900BF002000901B48A8
:1011C000006840F00100194908600846006800F016
:1011D0000100009000BF00BF00BF00200090134836
:1011E0001430006840F010001049143108600846BF
:1011F000006800F01000009000BF00BF07200590BD
:10120000022002900002019002200490002003902E
:1012100001A90548FFF75EFA2068C06840F4005055
:101220002168C86006B010BD00000240303802409E
:101230002DE9F84F04460E46174699464FF0000A2E
:1012400094F83D0020285DD106B117B90120BDE812
:10125000F88F00BF94F83C00012801D10220F6E786
:10126000012084F83C0000BF00202064212084F885
:101270003D00FFF719FB8246A784E784A068B0F51C
:10128000805F04D1206910B90025B04602E03546E0
:101290004FF0000800BF002084F83C0000BF1EE0B3
:1012A0005346002280212046CDF8009000F028FA15
:1012B00008B10320CBE745B9B8F80000C0F3080037
:1012C0002168486008F1020806E04420216848606F
:1012D0002878216848606D1CE08C401EE084E08C1A
:1012E0000028DDD15346002240212046CDF8009051
:1012F00000F006FA08B10320A9E7202084F83D0099
:101300000020A4E70220A2E710B5044622464FF4CD
:1013100080610348FFF7C2FA0120FFF728F810BDEB
:101320000008024010B5044622464FF4006103480D
:10133000FFF7B4FA0120FFF71AF810BD00080240C9
:1013400000B587B000BF002001901748006840F04A
:101350000400154908600846006800F00400019088
:1013600000BF00BF09151148FFF716F94FF40061DF
:101370000E48FFF711F9112003904FF4806002909E
:10138000012004900220059002A90848FFF7A2F965
:101390004FF40060029002A90448FFF79BF900F0A7
:1013A00007F807B000BD00003038024000080240D6
:1013B00010B50020FFF7B6FF0120FFF7A5FF0120C1
:1013C000FFF7B0FF10BD000010B504460A480B49F6
:1013D00008600846446000218161082141610021C4
:1013E000C1610161C160816000BF0448FFF7A2FED6
:1013F0000028FAD110BD00000010014014000020A8
:1014000001B54FF0FF33012269460248FFF710FF94
:1014100008BD00001400002000B593B0302107A8DB
:10142000FFF755F8142102A8FFF751F800BF00207C
:1014300001902148006840F080501F49086008462C
:10144000006800F08050019000BF00BF00BF002086
:1014500001901A48006820F4404040F400401749C9
:1014600008600846006800F44040019000BF00BFDB
:10147000012007900004089002200D9041050E9174
:1014800004210F91542110910221119104211291F4
:1014900007A8FFF7E7FB0F2002900220039000202F
:1014A00004904FF48050059000200690022102A87D
:1014B000FFF798FA13B000BD4038024000700040BA
:1014C0000348006840F4700001490860704700005C
:1014D00088ED00E02DE9F84F04462068006920F40B
:1014E0004050E1680843216808612169A068084309
:1014F00061690843E169084300902068C06849F2C7
:101500000C618843009908432168C86020684069DD
:1015100020F44070A1690843216848617649206839
:10152000884203D075492068884203D1FFF732FB17
:10153000814602E0FFF71EFB8146E069B0F5004FEF
:101540006CD102206168A0FB015003461920A9FB61
:10155000007001462A463846FEF742FF6421B0FB80
:10156000F1F04FEA001A02206168A0FB01510B461E
:101570001920A9FB00712A463846FEF731FF834641
:1015800002206168A0FB015003461920A9FB0071ED
:101590002A463846FEF724FF6421B0FBF1F000EB49
:1015A000C00101EB0010ABEB8000322101EBC00069
:1015B0006421B0FBF1F000F0F8000AEB400A0220D1
:1015C0006168A0FB015003461920A9FB0070014689
:1015D0002A463846FEF704FF834602206168A0FBD6
:1015E000015003461920A9FB00712A463846FEF730
:1015F000F7FE6421B0FBF1F000EBC00101EB00103D
:10160000ABEB8000322101EBC0006421B0FBF1F0B4
:1016100000F007005044216888606AE00420616897
:10162000A0FB015003461920A9FB007001462A4681
:101630003846FEF7D5FE824604206168A0FB0150C3
:1016400003461920A9FB007001462A463846FEF7DA
:10165000C7FE6421B0FBF1F000EBC00101EB00100C
:10166000AAEB8000322101EB00106421B0FBF1F005
:1016700000F0F00A04206168A0FB01700346192005
:10168000A9FB00513A462846FEF7AAFE6421B0FBAA
:10169000F1F00AEB001A04206168A0FB01510B462F
:1016A0001920A9FB00712A463846FEF799FE8346A9
:1016B00004206168A0FB015003461920A9FB0070BB
:1016C00001462A463846FEF78BFE6421B0FBF1F056
:1016D00000EBC00101EB0010ABEB8000322101EB0D
:1016E00000106421B0FBF1F000F00F0050442168BD
:1016F0008860BDE8F88F0000001001400014014030
:101700002DE9F04104460D4617469846069E34E002
:10171000701C88B32EB1FFF7C7F8A0EB0800B042E9
:101720002BD900BF00BF21680C3151E8001F21F404
:10173000D07021680C3141E80002002AF3D100BFCB
:1017400000BF00BF2168143151E8001F21F00100E3
:101750002168143141E80002002AF3D100BF2020A3
:1017600084F83D0084F83E0000BF002084F83C006F
:1017700000BF0320BDE8F081FFE720680068284033
:10178000A84201D1012000E00020B842C0D00020D2
:10179000F0E7000002480068C0F302207047000034
:1017A0000CED00E010B5002804DB0A07130E054A13
:1017B000135406E00A07140E034A00F00F031B1F20
:1017C000D45410BD00E400E018ED00E0FFF772F81B
:1017D000FFF722FEFFF7B4FDFEF7BCFD4FF4E1304A
:1017E000FFF7F2FD4420FFF70BFE00BFFEE74FF0CE
:1017F0004070E1EE100A7047000000000000000099
:1018000001020304060708090000000001020304A6
:10181000301800080000002014000000D00100086B
:101820004418000814000020A4060000EC01000881
:101830000000000000000000100000000100000097
:041840000024F4008C
:040000050800019559
:00000001FF
